:1000000071C000008EC000008CC000008AC00000DB
:1000100088C0000086C0000084C0000082C00000CC
:1000200080C000007EC000007CC000007AC00000DC
:1000300078C0000076C0000074C0000072C00000EC
:1000400070C000006EC000006CC000006AC00000FC
:1000500068C0000066C0000064C0000062C000000C
:1000600060C0000037C500005CC000005AC000003E
:1000700058C0000056C0000054C0000052C000002C
:1000800050C000004EC000004CC000004AC000003C
:1000900048C0000046C0000044C0000042C000004C
:1000A00040C000003EC000003CC000003AC000005C
:1000B00038C0000036C0000034C0000032C000006C
:1000C00030C000002EC000002CC000002AC000007C
:1000D00028C0000026C0000024C0000022C000008C
:1000E00020C0000011241FBECFEFD1E2DEBFCDBF84
:1000F00000E00CBF12E0A0E0B2E0E6EAFBE000E0C6
:100100000BBF02C007900D92A431B107D9F722E0CE
:10011000A4E1B2E001C01D92AD31B207E1F7B9D15F
:1001200040C56ECF01E008B92FEF80E792E0215083
:1001300080409040E1F700C0000000E008B92FEFD8
:1001400080E792E0215080409040E1F700C000003D
:1001500008950FEF04B900E005B90FEF07B900E00B
:1001600008B90FEF0AB900E00BB901E005B9DADF11
:100170000FE005B9D7DF08E305B9D4CF089501E052
:100180000BB985B9CFDF2FEF80E792E02150804097
:100190009040E1F700C0000000E00BB9089500ECCA
:1001A00005B9C0CF0895CF93DF93CDB7DEB7609781
:1001B0000FB6F894DEBF0FBECDBF28E0E4E0F2E05A
:1001C000DE01119601900D922A95E1F728E0ECE00E
:1001D000F2E0DE01199601900D922A95E1F7693659
:1001E000D1F06934D9F020E030E0B9C0E9E0F0E0C6
:1001F000EC0FFD1FE20FF31F708160910102761377
:1002000007C0B9016F5F7F4F7093150260931402AE
:100210002F5F3F4F05C020E030E002C020E030E01B
:10022000283031051CF360E070E080C0209114029A
:10023000309115022830310524F0109215021092E9
:10024000140241305105B1F4E0911402F09115020D
:1002500029E030E02C0F3D1FE20FF31F208122B96F
:100260003FEFE1E12AE73150E0402040E1F700C0F4
:10027000000047C042305105B1F4E0911402F09102
:10028000150229E030E02C0F3D1FE20FF31F208103
:1002900022B93FEFE7EA21E63150E0402040E1F7A4
:1002A00000C000002EC043305105B1F4E0911402AB
:1002B000F091150229E030E02C0F3D1FE20FF31FF3
:1002C000208122B93FEFEDE329E43150E0402040A6
:1002D000E1F700C0000015C0E0911402F091150292
:1002E00029E030E02C0F3D1FE20FF31F208122B9DF
:1002F0003FEFE3ED20E33150E0402040E1F700C064
:1003000000002091140230911502E9E0F0E0EC0FBA
:10031000FD1FE20FF31FE081E09301022F5F3F4FCB
:1003200030931502209314026F5F7F4F681779078F
:100330000CF47CCF9EC0E1E0F0E0EC0FFD1FE20F7B
:10034000F31F708160910102761307C0B9016F5FDE
:100350007F4F70931502609314022F5F3F4F283038
:1003600031054CF360E070E080C0209114023091C0
:1003700015022830310524F0109215021092140253
:1003800041305105B1F4E0911402F091150221E0E1
:1003900030E02C0F3D1FE20FF31F208122B93FEF09
:1003A000E1E12AE73150E0402040E1F700C00000E1
:1003B00047C042305105B1F4E0911402F0911502AA
:1003C00021E030E02C0F3D1FE20FF31F208122B906
:1003D0003FEFE7EA21E63150E0402040E1F700C07E
:1003E00000002EC043305105B1F4E0911402F091A9
:1003F000150221E030E02C0F3D1FE20FF31F20819A
:1004000022B93FEFEDE329E43150E0402040E1F72D
:1004100000C0000015C0E0911402F091150221E027
:1004200030E02C0F3D1FE20FF31F208122B93FEF78
:10043000E3ED20E33150E0402040E1F700C0000050
:100440002091140230911502E1E0F0E0EC0FFD1F65
:10045000E20FF31FE081E09301022F5F3F4F3093E3
:100460001502209314026F5F7F4F681779070CF411
:100470007CCF60960FB6F894DEBF0FBECDBFDF9184
:10048000CF9108959091C00095FFFCCF8093C60056
:100490000895109217021092160280E280931C02B7
:1004A00010921A02109219020FEF01B900E002B97E
:1004B00050DE00E00093C50007E60093C40006E0AC
:1004C0000093C20008E90093C10001E003BF89E482
:1004D000D9DF8EE4D7DF87E4D5DF82E5D3DF85E49B
:1004E000D1DF83E5CFDF85E4CDDF80E2CBDF8EE4B3
:1004F000C9DF85E5C7DF8DE4C5DF85E4C3DF82E5BD
:10050000C1DF8FE4BFDF80E2BDDF84E4BBDF85E4D1
:10051000B9DF80E2B7DF80E5B5DF81E4B3DF83E5F3
:10052000B1DF8FE4AFDF83E5ADDF80E2ABDF88E2F0
:10053000A9DF81E3A7DF8DE2A5DF89E3A3DF89E2FD
:10054000A1DF8AE39FDF809100029CDF7894889589
:1005500000000000FCCF85E495DF82E593DF82E5B3
:1005600091DF8FE48FDF82E58DDF81E28BDF80E238
:1005700089DF89E487DF8EE485DF87E483DF82E536
:1005800081DF85E47FDF83E57DDF85E47BDF80E25B
:1005900079DF85E577DF8EE475DF80E273DF86E55E
:1005A00071DF81E46FDF8CE46DDF8FE46BDF82E568
:1005B00069DF80E267DF83E465DF8FE463DF82E584
:1005C00061DF82E55FDF85E45DDF83E45BDF84E597
:1005D00059DF8FE457DF81E255DF8091000252CF6F
:1005E0000895109217021092160210921A02109299
:1005F000190280E280931C0212B8ABDD81E090E02A
:10060000909303028093020208958091C600809324
:10061000180238DF8091000235DF8091180290EDDA
:10062000980F923008F0B5C0803309F043C01092A3
:100630001802D7DF89E426DF8EE424DF87E422DF97
:1006400082E520DF85E41EDF83E51CDF85E41ADF19
:1006500080E218DF8EE416DF85E514DF8DE412DF1B
:1006600085E410DF82E50EDF8FE40CDF80E20ADF35
:1006700084E408DF85E406DF80E204DF80E502DF52
:1006800081E400DF83E5FEDE8FE4FCDE83E5FADE55
:1006900080E2F8DE88E2F6DE81E3F4DE8DE2F2DE6F
:1006A00089E3F0DE89E2EEDE8AE3ECDE809100028F
:1006B000E9DE70C081E0809318028091020290917F
:1006C00003020196909303028093020283E5DADE2F
:1006D00089E4D8DE87E4D6DE85E5D4DE89E4D2DE9F
:1006E00085E4D0DE8EE4CEDE84E5CCDE85E4CADEB1
:1006F00083E5C8DE80E2C6DE84E4C4DE81E4C2DED7
:1007000084E5C0DE8FE4BEDE83E5BCDE80910002BE
:10071000B9DE89E4B7DE8EE4B5DE87E4B3DE82E5D8
:10072000B1DE85E4AFDE83E5ADDE85E4ABDE80E2FD
:10073000A9DE8EE4A7DE85E5A5DE8DE4A3DE85E4F3
:10074000A1DE82E59FDE8FE49DDE80E29BDE84E415
:1007500099DE85E497DE80E295DE80E593DE81E434
:1007600091DE83E58FDE8FE48DDE83E58BDE80E234
:1007700089DE88E287DE81E385DE8DE283DE89E340
:1007800081DE89E27FDE8AE37DDE809100027ADE0F
:1007900001C0E1DE809118020895CF93C82F80E553
:1007A000EEDC81E4ECDC83E5EADC8FE4E8DC83E585
:1007B000E6DC8AE3E4DC80E2E2DC8C2FE0DCCF9153
:1007C0000895CF93DF938091C600C82FD0E05ADE02
:1007D0008091000257DECE01C197099708F053C0FF
:1007E00089E450DE8EE44EDE87E44CDE82E54ADEAC
:1007F00085E448DE83E546DE85E444DE80E242DED1
:1008000086E540DE85E43EDE8CE43CDE8FE43ADEC5
:1008100083E438DE89E436DE84E434DE81E432DEEB
:1008200084E430DE80E22EDE88E22CDE81E32ADE04
:1008300080E228DE8DE426DE89E424DE8EE422DEFA
:100840008CE220DE80E21EDE84E31CDE80E21ADE23
:100850008DE418DE81E416DE88E514DE89E212DE1E
:100860008AE310DE809100020DDE809102029091F9
:10087000030201969093030280930202CE018DDF62
:10088000CE01C09703C067DE80E090E0DF91CF919A
:100890000895CF93C82F80E272DC80E270DC86E599
:1008A0006EDC85E46CDC8CE46ADC8AE368DC80E284
:1008B00066DC8C2F64DC73DCCF910895CF93DF93DB
:1008C0008091C600C82FD0E0DDDD80910002DADD26
:1008D000CE01C197049708F045C089E4D3DD8EE4CA
:1008E000D1DD87E4CFDD82E5CDDD85E4CBDD83E5B9
:1008F000C9DD85E4C7DD80E2C5DD84E4C3DD89E4CC
:10090000C1DD82E5BFDD85E4BDDD83E4BBDD83E4DD
:10091000B9DD89E4B7DD8FE4B5DD8EE4B3DD80E2D7
:10092000B1DD88E2AFDD89E4ADDD80E2ABDD8FE6ED
:10093000A9DD80E2A7DD84E4A5DD89E2A3DD8AE309
:10094000A1DD809100029EDD809102029091030260
:1009500001969093030280930202CE019ADFCE01AA
:10096000C09703C0F8DD80E090E0DF91CF9108955B
:10097000CF93C82F84E403DC89E401DC82E5FFDB4C
:100980008AE3FDDB80E2FBDBC93611F0C934A9F450
:1009900089E4F5DB8AE5F3DB81E5F1DB85E5EFDB77
:1009A00089E4EDDB85E4EBDB82E5E9DB84E4E7DB8E
:1009B00081E4E5DB8EE2E3DB10C084E4E0DB85E488
:1009C000DEDB82E5DCDB85E4DADB83E4D8DB88E4AC
:1009D000D6DB81E4D4DB8EE2D2DBCF910895CF93D6
:1009E000C091C6008C2F4EDD809100024BDDC434D7
:1009F00039F0C93429F0C43619F0C93609F065C098
:100A000089E440DD8EE43EDD87E43CDD82E53ADDCD
:100A100085E438DD83E536DD85E434DD80E232DDF2
:100A200081E330DD80E22EDD80E52CDD81E42ADD0E
:100A300082E528DD81E426DD80E224DD83E422DD19
:100A40008FE420DD8EE41EDD84E51CDD89E41ADD03
:100A50008EE418DD85E516DD81E414DD82E512DD26
:100A600080E210DD8FE60EDD80E20CDD80E30ADD42
:100A700080E208DD80E506DD81E404DD82E502DD5B
:100A800081E400DD80E2FEDC83E4FCDC8FE4FADC60
:100A900082E5F8DC82E5F6DC85E4F4DC87E4F2DC70
:100AA00089E4F0DC82E5EEDC8AE3ECDC8091000294
:100AB000E9DC8C2F5DDF80910202909103020196A8
:100AC000909303028093020202C045DDC0E28C2FA6
:100AD000CF9108951F920F920FB60F9211240BB66B
:100AE0000F922F933F934F935F936F937F938F93C7
:100AF0009F93AF93BF93EF93FF93809102029091E6
:100B000003028130910551F48091160290911702F1
:100B100058DE909317028093160230C08230910500
:100B200051F48091190290911A02C8DE90931A0232
:100B30008093190223C08330910531F480911C0207
:100B40004EDF80931C021AC084309105A1F480917D
:100B5000180290E05ADD80931802813079F44091B8
:100B6000190250911A0260911C0280911602909114
:100B7000170219DB03C0059709F433DDFF91EF91EC
:100B8000BF91AF919F918F917F916F915F914F91A5
:100B90003F912F910F900BBE0F900FBE0F901F90A3
:060BA0001895F894FFCF48
:100BA6000D090100080C04060203010901030206EF
:040BB600040C08091A
:00000001FF
