:020000020000FC
:080000000C942A000C94570037
:100050000C94490020E040E01FE331E00FEF01B9CC
:1000600004B90BB912B915B902EC17EF009385006A
:100070001093840005E00093810001E000936F007D
:1000800001E00DBB02E000936900789400000C943D
:10009000460002EC17EF0093850010938400022FB6
:1000A0000E945F00202F0E94640012B91895042F4F
:1000B0000E945F00402F0E94640015B91895030F3D
:1000C0000A300AF000E00895003019F41FE30C94A0
:1000D0009400013019F416E00C949400023019F4E5
:1000E0001BE50C949400033019F41FE40C94940065
:1000F000043019F416E60C949400053019F41DE64A
:100100000C949400063019F41DE70C949400073009
:1001100019F417E00C949400083019F41FE70C94BC
:0A01200094001FE60C94940008956B
:00000001FF
