:020000020000FC
:080000000C942A000C945F002F
:100050000C94510020E040E01FE331E0B0E8A0E064
:10006000D1E8C0E000E80093740006E0009375005A
:100070001C9318830FEF0BB902EC17EF0093850068
:100080001093840005E00093810001E000936F006D
:1000900001E00DBB02E000936900789400000C942D
:1000A0004E0002EC17EF0093850010938400022F9E
:1000B0000E946700202F0E946C001C931895042F4B
:1000C0000E946700402F0E946C0018831895030F50
:1000D0000A3008F000E00895003019F41FE30C9492
:1000E0009C00013019F416E00C949C00023019F4C5
:1000F0001BE50C949C00033019F41FE40C949C0045
:10010000043019F416E60C949C00053019F41DE631
:100110000C949C00063019F41DE70C949C000730E9
:1001200019F417E00C949C00083019F41FE70C94A4
:0A0130009C001FE60C949C0008954B
:00000001FF
