:1000000071C0000092C00000ABC000007DC00000C5
:100010007BC0000079C0000077C0000075C0000000
:1000200073C0000071C000006FC000006DC0000010
:100030006BC0000069C0000067C0000065C0000020
:1000400063C0000061C000005FC000005DC0000030
:10005000CBC0000059C0000057C0000055C00000D0
:1000600053C0000051C000004FC000004DC0000050
:100070004BC0000049C0000047C0000045C0000060
:1000800043C0000041C000003FC000003DC0000070
:100090003BC0000039C0000037C0000035C0000080
:1000A00033C0000031C000002FC000002DC0000090
:1000B0002BC0000029C0000027C0000025C00000A0
:1000C00023C0000021C000001FC000001DC00000B0
:1000D0001BC0000019C0000017C0000015C00000C0
:1000E00013C0000011241FBECFEFD1E2DEBFCDBF91
:1000F00000E00CBF22E0A0E0B2E001C01D92A830F9
:10010000B207E1F702D0D8C07BCF8FEF81B912B828
:1001100084B915B887B918B883E08DBB8FE0809398
:100120006900789400000000FDCF1F920F920FB677
:100130000F9211248F93109201021092000284E01A
:10014000809381008CED8093850081E08093840012
:1001500080936F008F910F900FBE0F901F90189596
:100160001F920F920FB60F9211248F939F9381E0ED
:1001700090E0909301028093000210920702109287
:1001800006021092050210920402109203021092CD
:1001900002029F918F910F900FBE0F901F901895A4
:1001A00080910602909107022CE330E0B9015DD006
:1001B000609302027093030262B9809106029091EB
:1001C0000702B90152D090930502809304022AE0FD
:1001D00030E0B9014AD065B98091040290910502DE
:1001E000B90143D088B908951F920F920FB60F92AC
:1001F00011240BB60F922F933F934F935F936F93FE
:100200007F938F939F93AF93BF93EF93FF938091CF
:10021000000290910102892BA9F48091060290912D
:1002200007020196909307028093060284E0809370
:1002300081008CED8093850081E080938400809321
:100240006F00AEDFFF91EF91BF91AF919F918F91C2
:100250007F916F915F914F913F912F910F900BBEC6
:100260000F900FBE0F901F90189597FB072E16F456
:10027000009406D077FD08D00BD007FC05D03EF4E3
:10028000909581959F4F0895709561957F4F089542
:10029000AA1BBB1B51E107C0AA1FBB1FA617B707AC
:1002A00010F0A61BB70B881F991F5A95A9F78095C8
:0C02B0009095BC01CD010895F894FFCF9B
:00000001FF
